:020000040800F2
:10000000B00700209D0100080F240008511F0008C0
:100010000D240008A9020008E729000800000000DC
:10002000000000000000000000000000F5240008AF
:10003000AB020008000000003D240008F72400087F
:10004000B7010008B7010008B7010008B7010008B0
:10005000B7010008B7010008AD020008B7010008A9
:10006000B7010008B7010008B7010008B701000890
:10007000B7010008B7010008B7010008B701000880
:10008000B7010008B7010008B7010008B701000870
:10009000B7010008B7010008B7010008B701000860
:1000A000B7010008B7010008B7010008B701000850
:1000B000B7010008B7010008B7010008B701000840
:1000C000B7010008B7010008B7010008B701000830
:1000D000B7010008B7010008B7010008B701000820
:1000E000B7010008B7010008B7010008B701000810
:1000F000B7010008B7010008B7010008B701000800
:10010000B7010008B7010008B7010008B7010008EF
:10011000B7010008B7010008B7010008B7010008DF
:10012000B7010008B7010008B7010008B7010008CF
:10013000B7010008B7010008B7010008B7010008BF
:10014000B7010008B7010008B70100083124000812
:10015000B7010008B7010008B7010008B70100089F
:10016000B7010008B7010008B7010008B70100088F
:10017000B7010008B7010008B7010008000000003F
:10018000B7010008B7010008DFF80CD000F07AF8DA
:1001900000480047092A0008B007002006488047A9
:1001A00006480047FEE7FEE7FEE7FEE7FEE7FEE75C
:1001B000FEE7FEE7FEE7FEE7B92500088901000833
:1001C0002DE9F05F0546002092469B46884606468C
:1001D000814640241BE0284641464746224600F01F
:1001E00041F853465A46C01A914110D31146184659
:1001F000224600F028F82D1A67EB01084F462246E8
:100200000120002100F01FF817EB00094E41201ECD
:10021000A4F10104DFDC484631462A464346BDE8E6
:10022000F09F40EA01039B0703D009E008C9121FB1
:1002300008C0042AFAD203E011F8013B00F8013BA0
:10024000521EF9D27047202A04DB203A00FA02F14C
:10025000002070479140C2F1200320FA03F31943B4
:1002600090407047202A04DB203A21FA02F0002156
:10027000704721FA02F3D040C2F1200291400843B6
:1002800019467047064C074D06E0E06840F0010350
:1002900094E8070098471034AC42F6D3FFF778FF94
:1002A000D82A0008F82A0008FEE77047012000F06D
:1002B00045B8000070B5044600F02EF90546601CF4
:1002C00002D004480078044400F026F9401BA04204
:1002D000FAD370BD1000002010B5144C0022082184
:1002E000204600F013F91249A82032230870012299
:1002F000104801F0B5F90E493223062208310D48A5
:1003000001F006F901220821204600F0FFF8084814
:100310000749083002884A8042888A808088C880DD
:10032000A114BDE81040044800F0ECB800100240F1
:1003300000000020BC000020000C0240044910B561
:100340000A68024202D00860FFF7C6FF10BD000035
:10035000143C01402DE9F84FDFF87CB100224FF04A
:1003600001084FF0030A4FF00F090BF1040E00BF14
:100370000B6808FA02F42340A3426ED14D68022DA7
:1003800001D0122D0ED1D50800EB850CDCF82050E1
:100390005607F70E09FA07F6B5430E69BE402E431D
:1003A000CCF82060066855000F790AFA05FC07F0C2
:1003B000030726EA0C06AF40374307604E68012E5C
:1003C00005D0022E03D0112E01D0122E0ED1866838
:1003D000CF6826EA0C06AF40374387604668A643DD
:1003E0000C79C4F30014944034434460C6688C68AC
:1003F00026EA0C06AC403443C4604C68E40065D582
:10040000364C256845F480452560246822F00305B4
:1004100004F480440094324C2E19D6F8084895070D
:100420002F0F09FA07F5AC432E4DA84201D1002544
:1004300024E02D4DA84201D101251FE02B4DA842FB
:1004400001D102251AE02A4DA84201D1032515E069
:10045000284DA84202D1042510E037E0264DA842DD
:1004600001D105250AE0254DA84201D1062505E068
:10047000234DA84201D1072500E00825BD402543B2
:10048000C6F80858DBF800405D464E689C43F6030A
:1004900000D51C432C60DEF8004075464E689C4336
:1004A000B60300D51C432C600B4D08352C684E68F4
:1004B0009C43F60200D51C432C60074D0C352C687C
:1004C0004E689C43B60200D51C432C60521C102A77
:1004D000FFF44EAFBDE8F88F003C014044380240C5
:1004E00000300140000002400004024000080240C9
:1004F000000C0240001002400014024000180240AC
:10050000001C024042694A40426170470AB1816161
:1005100070470904FBE7000001488068704700004D
:100520001000002070477047704700002DE9F0412F
:10053000044600680025064602F0F8F801287DD13F
:10054000206802F026FA002878D0206802F021FA0C
:10055000800203D521684FF400104861206802F042
:1005600018FAC00203D521684FF480104861206852
:1005700002F00FFA400103D521684FF08060486116
:10058000206802F006FA800702D52168022048613F
:10059000206802F0FEF9800010D5D6F8400420F063
:1005A0002E00C6F840042046FFF7BDFF0121206859
:1005B00002F0D4F921684FF000504861206802F041
:1005C000E8F9C00102D5204601F033FC206802F0B2
:1005D000E0F9000705D5204600F0A8F821680820BA
:1005E0004861206802F0D5F9800120D5206802F02A
:1005F00045F907464FF0010812E000BF08FA05F080
:1006000038420CD006EB4510D0F80005E9B20004E2
:10061000204602D501F0E9F901E001F0FFFA6D1C76
:10062000A068A842EAD821684FF0007048612068AD
:1006300002F0AFF9C0060ED5206800E00BE081693A
:1006400021F010018161204601F04AFC2068816997
:1006500041F010018161BDE8F08130B58BB004003C
:1006600026D0032084F89102204600F023F8206869
:1006700002F01EF804F1100128220D466846FFF72B
:10068000D0FD94E80F0001F0C1FF0121206802F0C5
:1006900094F9282229466846FFF7C3FD94E80F0025
:1006A00002F0F2F8012084F8910200200BB030BD76
:1006B0000120FBE730B5006887B0B0F1A04F2ED124
:1006C00000244FF40070CDE90004164D6946284619
:1006D0000294FFF73FFE4FF4E05000900220CDE976
:1006E00001040A20CDE9034069462846FFF732FE9F
:1006F0000D48016841F0800101600B48103001682D
:1007000041F4804101600068002200F480400590BF
:100710001146432000F02EFB432000F01FFB07B0E2
:1007200030BD000000000240343802407047000035
:1007300070B5040004D094F83D00002510B106E027
:10074000012070BD84F83C50204600F075F824204C
:1007500084F83D002068016821F00101016000F08B
:10076000A5FC33492268B0FBF1F15160314A63685E
:10077000934206D94FF4967359434FF47A73B1FB01
:10078000F3F12368491C1962616891420BD8490052
:10079000B0FBF1F2C2F30B02042A01D2042019E0EB
:1007A000B0FBF1F016E0A3689BB301EBC10202EBD2
:1007B0000112B0FBF2F242F48042120530D04BB38A
:1007C00001EBC10202EB0111B0FBF1F040F48040FB
:1007D00040F400402168C861D4E90701084321685A
:1007E0000860D4E90310084321688860D4E9050152
:1007F00008432168C8602068016841F00101016078
:100800002564202084F83D00256384F83E500020B4
:1008100070BD00E006E001EB4102B0FBF2F2CCE774
:100820000120D7E701EB4101B0FBF1F0D0E7000078
:1008300040420F00A086010000B500680E4987B055
:10084000884217D14FF410700090122001900120BF
:100850000290002003900420049069460748FFF7A7
:1008600079FD0748016841F400110160006800F457
:100870000010059007B000BD005400400004024085
:10088000403802402DE9FE43044600688168744DFB
:10089000744E4FF040270291A84201D1314600E04A
:1008A000394689680191C1694FF00108C1F30121FE
:1008B00002290AD0C16911F4407F06D00199890745
:1008C00073D5A84267D1304666E00299890707D5FB
:1008D0004068C043000603D40021204601F07EFB9F
:1008E0000198C0070DD02068A84201D1304600E031
:1008F00038464068C043400603D40121204601F039
:1009000029FB01984FF65F79400628D52068A84258
:1009100001D1314600E039464968C94389061ED4F1
:10092000A84201D1304600E03846406820F060011E
:1009300001D1304600E0384641602068416801EA54
:10094000090141602068C1688068009084F8418096
:10095000606C40F002006064204600F086F8029867
:1009600000077BD520684168C943890676D4416871
:1009700001EA090141602068A84201D1304600E047
:100980003846406820F0600000D03E467060206825
:100990008068009057E0384640686FEA0000000623
:1009A00003D40121204601F019FB0298C00708D0AA
:1009B00020684068C043400603D40021204601F06F
:1009C000C9FA02984FF69F7940061FD52068416802
:1009D000C94389061AD4416801EA090141602068C7
:1009E000A84201D1304600E03846406820F0A0011E
:1009F00001D1304600E03846416084F84180606CA7
:100A000040F002006064204600F02FF801980007D3
:100A100024D52068A84201D1314600E03946496812
:100A2000C94389061AD4A84201D1304600E03846AD
:100A3000406820F0A00000D03E4670602068416809
:100A400001EA0901416084F84180606C40F00400D3
:100A500060642046BDE8FE4300F007B8BDE8FE83B1
:100A60000038004000340040704770472DE9F05FC7
:100A700004004FF002064FF000074FF010052CD095
:100A80004FF00209C84684F84190544860632046FC
:100A900000F0ACF82068C16940F6BF7A21EA0A018B
:100AA000C1612168C1F820802068D0F81C8060698D
:100AB0004FF4007B022835D0E06800B12025A06803
:100AC000202800D86D00012000F086F921695945E1
:100AD00025D1E16821B1A90003E00120BDE8F09F24
:100AE000E900B0FBF1F000BF00EB8000616940005D
:100AF000B0FBF1F0401D0A21B0FBF1F101F0010063
:100B0000091AC1F34F060702B01EFE280AD3606C13
:100B100040F0100060642046FFF7A7FFDDE7B0FB60
:100B2000F5F0E1E7206921683E4330430862A08880
:100B30002189228B0843A1891143084380B221688F
:100B400040EA080040F40060C861206A01283AD1F8
:100B50002348606323482168234A4FF040238142A1
:100B600001D1114600E01946C96921EA0A0101D103
:100B7000154600E01D46E96125684946854201D1D8
:100B8000154600E01D4629622568854201D11146BF
:100B900000E01946CE69616859451BD0D1B10021EA
:100BA0002789B4F80CC047EA0C07B4F818C04CEA1F
:100BB000010C47EA0C07B9B2314341F400618542A8
:100BC00000D01A46D16100206064012084F8410001
:100BD000002083E74FF48071E2E700006120000805
:100BE00085080008003800400034004070B50068F7
:100BF000134986B0884220D112480024016841F48C
:100C0000004101600068022500F4004005901020BA
:100C10000090CDE901540626CDE9034669460A480D
:100C2000FFF798FB4FF4A4500090CDE90154CDE9B3
:100C3000034669460548FFF78DFB06B070BD00000E
:100C4000003C0040403802400000024000080240E2
:100C5000704770470248816802781144816070478C
:100C6000100000200B4810B5016841F400710160CC
:100C7000016841F480610160016841F480710160A4
:100C8000032000F097F8002000F006F800F024F8A8
:100C9000002010BD003C024070B50D4D04464FF4DD
:100CA0007A712878B1FBF0F00A490968B1FBF0F0DD
:100CB00000F083FE48B9102C07D200222146501EB6
:100CC00000F058F800206C6070BD012070BD00007D
:100CD000100000201C0000201F4808B5016841F4E6
:100CE00080410160006800F4804000901A48001FB5
:100CF000016841F080510160006800F08050009070
:100D0000072000F057F8002211466FF00B0000F0AA
:100D100031F8002211466FF00A0000F02BF8002293
:100D200011466FF0090000F025F800221146501F0F
:100D300000F020F800221146101F00F01BF80022DE
:100D40001146901E00F016F80022BDE8084011463A
:100D5000501E00F00FB800004438024000F01F029F
:100D6000012191404009800000F1E020C0F800110D
:100D700070470000F0B40E4B1B680C46C3F302230F
:100D8000C3F10705042D00D90425191D072901D237
:100D9000002300E0DB1E012606FA05F1491E214072
:100DA00099409E40761E16403143F0BC01F030BBA6
:100DB0000CED00E0064900F0070208684FF6FF035B
:100DC000184040EA0220034A1043086070470000C0
:100DD0000CED00E00000FA0501460020012907D1D2
:100DE0001049096811F4000103D0012900D10E480F
:100DF00070470C48001F01680068490200F03F007E
:100E000001D50A4900E00A49064AB1FBF0F07C32FC
:100E10001168C1F3881141431068C0F30270B1FB3F
:100E2000F0F07047083802400080BB0000127A00E2
:100E30000024F4002DE9F843054600684FF001094D
:100E4000C1074FF0000601D1400727D5DFF80C811C
:100E5000C8F86860FFF760FB0746414C05E000BF3B
:100E6000FFF75AFBC01B022857D820680001F7D4AF
:100E700068688101287A41EA007039498431086044
:100E8000C8F86890FFF748FB074604E0FFF744FB0B
:100E9000C01B022841D820680001F7D528788007B8
:100EA00052D52F484030016841F080510160006800
:100EB0002C4C00F080500090206840F4807020603E
:100EC000FFF72AFB074604E0FFF726FBC01B0228BA
:100ED00023D82068C005F7D5214C7034206810F461
:100EE000407020D0A98901F4407181421BD0206854
:100EF0001D4920F44070C1F800900E602060206809
:100F0000C00710D0FFF708FB064641F2883707E01C
:100F1000FFF702FB801BB84202D90320BDE8F8832B
:100F200020688007F4D5E9680D48C1F30122083034
:100F3000032A0BD0016821F4F81101602068A98907
:100F4000C1F30B01084320600020E7E70268074B6C
:100F500022F4F81219400A430260EFE7000047420A
:100F60000038024000700040400E4742FFFCFF0F77
:100F70002DE9F0470E46050065D0DFF81481D8F85A
:100F80000000F7B200F00F00B04207D288F80070FE
:100F9000D8F8000000F00F00B04254D128683D4C52
:100FA000810712D5400703D5206840F4E050206047
:100FB0002878000703D5206840F46040206020684E
:100FC000A96820F0F000084320602878C0072DD0E1
:100FD000304968680839012812D0022813D0032844
:100FE00011D00968890700292DDA216821F0030151
:100FF00001432160FFF790FA814641F2883A0EE002
:1010000009688903EFE709688901ECE7FFF784FACB
:10101000A0EB0901514502D90320BDE8F087206803
:10102000696800F00C00B0EB810FEFD1D8F8001028
:10103000404601F00F01B14207D90770006800F087
:101040000F00B04201D00120E7E72878400705D51E
:101050002068E96820F4E050084320602878000701
:1010600006D52068296920F4604040EAC10020606C
:1010700000F02CF82168084AC1F30311515CC84004
:10108000064908600020FFF707FE0020C5E70000C2
:10109000003C024008380240C02A00081C00002022
:1010A00001480068704700001C0000200448054902
:1010B00000680968044AC1F38221515CC840704746
:1010C0001C00002008380240D02A0008154810B53E
:1010D000006810F00C02144813D04110042A0FD0FD
:1010E000082A0ED10F4C241F2268236802F03F0209
:1010F0005B0207D52068C0F38810A0FB010106E061
:10110000084610BD2168C1F38811A1FB000100232E
:10111000FFF756F82168C1F30141491C4900B0FBB3
:10112000F1F010BD083802400024F4002DE9F84F1A
:10113000050076D02878DFF8F8B2BE4CC00749D059
:10114000DBF800105846C1F38101012908D000687E
:10115000C0F3810002280AD1201D0068400206D594
:101160002068800336D568680028E2D032E06868DD
:10117000B0F5803F10D0B0F5A02F206810D020F43B
:1011800080302060206820F4802020606868A0B152
:10119000FFF7C2F906460CE0206840F48030F4E71F
:1011A00040F480202060F7E7FFF7B6F9801B642841
:1011B00073D820688003F7D50CE0FFF7ADF9064639
:1011C00005E000BFFFF7A8F9801B6428F0D820686D
:1011D0008003F7D42878DFF8608280074FF0000999
:1011E0003ED5DBF80010584611F00C0F09D000680E
:1011F000C0F3810002280BD18D48001F0068400217
:1012000006D42068800715D5E868012809D111E0C7
:10121000E868B8B10120C8F80000FFF77DF906467C
:1012200005E002E1FFF778F9801B0228C0D82068AA
:101230008007F7D52068296920F0F80040EAC1004E
:1012400020600DE0C8F80090FFF766F9064604E05C
:10125000FFF762F9801B02281FD820688007F7D4A7
:101260002878000722D5724E744869696C3671B1CE
:1012700001210160FFF750F9074604E0FFF74CF940
:10128000C01B022809D830688007F7D50EE0C0F8E7
:101290000090FFF741F9074605E083E0FFF73CF9CE
:1012A000C01B02287ED830688007F7D42878400712
:1012B00068D5DFF87CA100270AF1380ADAF80000C7
:1012C000C0000BD4DAF8001041F08051CAF80010C9
:1012D000DAF80000012700F080500090584E306886
:1012E000C00510D4306840F480703060FFF714F906
:1012F000009005E0FFF710F90099401A022851D834
:101300003068C005F6D54A4EA868683601280FD067
:101310000528306810D020F001003060306820F0DF
:1013200004003060A868B8B1FFF7F6F800900FE04D
:10133000306840F00100F4E740F004003060F7E767
:10134000FFF7EAF80099411A41F28830814264D8E7
:1013500030688007F4D50EE0FFF7DEF8009007E074
:10136000FFF7DAF80099411A41F28830814254D8E7
:1013700030688007F4D42FB1DAF8001021F08051E2
:10138000CAF80010A869C0B3DBF80010C1F38101EE
:1013900002294AD00228484607D0C8F86000FFF763
:1013A000BBF800E039E005463AE04746C8F860007F
:1013B000FFF7B2F8064604E0FFF7AEF8801B0228FC
:1013C0002BD820688001F7D4D5E907010843A96A22
:1013D0001C4A490802EB01416A6A41EA821108434A
:1013E00095F82C1040EA01611148001F01600120AE
:1013F0003866FFF791F8054605E014E0FFF78CF832
:10140000401B022809D820688001F7D50BE000BFF7
:10141000FFF782F8401B022802D90320BDE8F88FAD
:1014200020688001F4D40020F8E70120F6E70000EE
:10143000083802400038024000004742800E474210
:10144000007000400000FFFF70B5040005D00025CB
:10145000A56294F8510010B106E0012070BD84F837
:101460005050204600F030F8022084F851002068E7
:10147000016821F040010160D4E901010843D4E989
:1014800003121143084361690843218B01F4007181
:101490000843E1690843216A0843A16A08432168B7
:1014A0000860A069042101EA1040616A08432168CC
:1014B00048602068C16921F40061C161656501204F
:1014C00084F85100002070BD00B500680D4987B058
:1014D000884215D10C480021026842F48052026013
:1014E000006800F480500590E02000900220CDE9D3
:1014F00001010520CDE9031069460448FEF72AFFE3
:1015000007B000BD003001404438024000000240F6
:101510002DE9F84F044640680026984617460D46C8
:101520004FF00409B0F5827F01D1A06890B194F822
:101530005000012819D04FF0010B84F850B0FEF78D
:10154000EBFF009094F851004FF0000A01280ED0F4
:1015500002267FE084F8519013460A462046CDF8D3
:10156000008000F031F9BDE8F88F0220FBE7002D84
:101570006FD0002F6DD084F85190C4F854A0A563AB
:10158000A787E787C4F830A0A4F834A0A4F836A051
:10159000C4F840A0C4F844A0A0684FF40047B84283
:1015A00004D12068016821F480410160206801684D
:1015B000490603D4016841F040010160E068B8B118
:1015C00033E020688168C90706D0007B05F8010B6D
:1015D000E08F401EE0870BE0B8F1000F23D0B8F198
:1015E000FF3F05D0FEF798FF0099411A41451AD2F6
:1015F000E08F0028E5D11BE020688168C90706D08C
:10160000C06825F8020BE08F401EE0870DE0B8F1BE
:10161000000F08D0B8F1FF3F07D0FEF77DFF00991B
:10162000411A414501D3032614E0E08F0028E3D19D
:101630006068B0F5827F0AD1A068B84202D0B0F5E8
:10164000806F04D12068016821F040010160606D65
:1016500000B1012684F851B084F850A0304682E7EA
:101660002DE9F84F044690F8500000269946174699
:101670000D4601280DD04FF0010B84F850B0FEF755
:101680004BFF804694F85100B246012804D0022650
:1016900094E00220BDE8F88F002D7BD0002F79D098
:1016A000032084F85100C4F854A02563A786E78678
:1016B000C4F838A0A4F83CA0A4F83EA0C4F844A004
:1016C000C4F840A0A068B0F5004F04D120680168BC
:1016D00041F48041016020680168490603D4016833
:1016E00041F040010160E068B0F5006F606804D02F
:1016F00030B3E08E012823D03EE010B1E08E012807
:101700001AD135F8021B206805E020688168890736
:1017100006D535F8021BC160E08E401EE0860BE066
:10172000B9F1000F34D0B9F1FF3F05D0FEF7F4FE58
:10173000A0EB080149452BD2E08E0028E5D11EE040
:10174000216815F8010B087306E020688168890795
:1017500006D515F8011B0173E08E401EE0860BE0F4
:10176000B9F1000F14D0B9F1FF3F05D0FEF7D4FE58
:10177000A0EB080149450BD2E08E0028E5D14B468D
:10178000012202212046CDF8008000F068FE10B151
:10179000032613E011E042464946204600F04FFE82
:1017A00018B101262020606508E0A06818B92068FB
:1017B000C16880680090606D00B1012684F851B066
:1017C00084F850A0304665E72DE9F84F044690F8BC
:1017D000500000260A9F9A4693460D464FF0010896
:1017E00001280ED0012084F85000FEF795FE8146B6
:1017F00094F85100616801280CD0B1F5827F07D1BF
:1018000002E00220BDE8F88FA16809B9042801D0E0
:101810000226BDE055B1BBF1000F07D0BAF1000FB1
:1018200004D094F85100012802D004E00126AFE072
:10183000052084F8510000206065C4F838B0A4F891
:101840003EA0A4F83CA02563A4F836A0A4F834A0D8
:101850002064606420680168490603D4016841F08F
:1018600040010160E068B0F5006F606804D0E8B343
:10187000E08E01283BD06AE010B1E08E01282ED125
:10188000216835F8020BC860E08E401EE08626E035
:10189000B8F1000F0DD0E08E58B12068816889073B
:1018A00007D535F8021BC160E08E401EE0864FF080
:1018B0000008E08F58B120688168C90707D0C06868
:1018C0002BF8020BE08F401EE0874FF00108781CD8
:1018D00005D0FEF721FEA0EB0900B84246D2E08E0B
:1018E0000028D5D1E08F0028D2D136E0FFE721686B
:1018F00015F8010B0873E08E401EE08627E000BF5C
:10190000B8F1000F0DD0E08E58B1206881688907CA
:1019100007D515F8011B0173E08E401EE0864FF0DD
:101920000008E08F58B120688168C90707D0C068F7
:101930000BF8010BE08F401EE0874FF00108781C88
:1019400005D0FEF7E9FDA0EB0900B8420ED2E08E0B
:101950000028D5D1E08F0028D2D13B4601220221B8
:101960002046CDF8009000F07AFD08B103260FE084
:101970004A463946204600F062FD18B10126202073
:10198000606505E0A06818B92068C16880680090AB
:10199000012084F85100002084F85000304631E7DF
:1019A0004FF0E0210428086903D020F0040008610A
:1019B000704740F00400FAE7704710B5401EB0F1E0
:1019C000807F01D3012010BD4FF0E02460610F2122
:1019D000601700F01DFD0020A0610720206100209D
:1019E00010BD10B5FFF7E8FF10BD2DE9F05F06460A
:1019F0000068884600EB4814D4F808054FF0040B43
:101A0000410708EB88004FF0050A4FF0100706EB7E
:101A1000C00508D5C4F808B5D4F80C0540F002009C
:101A2000C4F80C0532E0D4F80805800601D5202062
:101A30002AE0D4F808054FF00809000710D5D4F8BB
:101A40000C0540F00200C4F80C0585F85DA0C4F850
:101A50000875C4F808954146306800F06BFE15E043
:101A6000D4F80805400511D5D4F80C0540F0020063
:101A7000C4F80C054146306800F05CFEC4F80875F7
:101A800085F85D904FF48060C4F80805D4F8080527
:101A900080050ED5D4F80C0540F00200C4F80C0502
:101AA000414604F5A164306800F044FE4FF4007034
:101AB0008DE0D4F808054FF00001C0074FF0010297
:101AC00036D0306930B1A86CD4F81035C3F31203A6
:101AD000C01AE86485F85D20A965C4F8082595F862
:101AE0003F0020B1022802D003280ED019E0D4F81C
:101AF0000C0540F00200C4F80C05414604F5A16451
:101B0000306800F017FE27600BE0D4F8000540F0C5
:101B10000050C4F8000585F85C2041463046FEF7C9
:101B200003FD15F8500F80F001002870BDE8F09F0C
:101B3000D4F80805800733D5D4F80C0520F002004E
:101B4000C4F80C0595F85D000223012806D005288D
:101B500007D0062808D0082806D018E085F85C20B1
:101B600015E085F85CA012E0A86D421CAA65032868
:101B700003D9A96585F85CB001E085F85C30D4F83C
:101B8000000520F0804040F00040C4F80005C4F893
:101B9000083595F85C2041463046FEF7C5FCC5E7A0
:101BA000D4F80805000614D5D4F80C0540F002005E
:101BB000C4F80C05A86D4146401CA865062085F8B0
:101BC0005D0004F5A164306800F0B4FD8020206061
:101BD000ACE7D4F80805C006A8D595F83F0003285F
:101BE00009D1D4F80C0540F00200C4F80C054146B8
:101BF000306800F09FFD032085F85D00C4F808758B
:101C000095F83F0008B1022890D1D4F8000520F0E3
:101C1000804040F00040C4F8000587E72DE9F04718
:101C2000026802EB4114D4F808254FF0040C520767
:101C300009D5C4F808C5D4F80C0540F00200C4F872
:101C40000C05BDE8F087D4F8082501EB8103920666
:101C50004FF0020600EBC30514D52022C4F8082576
:101C600095F83D20012AECD185F85DC0D4F80C250B
:101C700042F00202C4F80C25006800F05BFD85F814
:101C80005C60DEE7D4F808254FF0000352060FD55C
:101C900085F85DC0AB65D4F80C2542F00202C4F8AB
:101CA0000C25006804F5A16400F044FD402010E01C
:101CB000D4F8082592050ED5D4F80C2542F002027E
:101CC000C4F80C25006804F5A16400F033FD4FF45E
:101CD00000702060B5E7D4F808254FF00108D2075E
:101CE00010D0AB65D4F80C2542F00202C4F80C25E4
:101CF000006804F5A16400F01DFDC4F8008085F8BB
:101D00005D809EE7D4F808254FF0080912074FF0D0
:101D1000050A0DD5C4F80895D4F80C2542F0020246
:101D2000C4F80C25006800F005FD85F85DA088E783
:101D3000D4F808254FF01007D20610D5AB65D4F8BB
:101D40000C2542F00202C4F80C25006804F5A164D9
:101D500000F0F0FC032085F85D00276071E7D4F8FF
:101D6000082512060FD5D4F80C2542F00202C4F85B
:101D70000C25006804F5A16400F0DCFC062085F861
:101D80005D008020A5E7D4F80825520511D5D4F8C8
:101D90000C2542F00202C4F80C25006804F5A16489
:101DA00000F0C8FC27604FF48060206085F85D90EB
:101DB00047E7D4F8082592078CD5D4F80C2522F0F3
:101DC0000202C4F80C2595F85D20012A0AD0032AE6
:101DD00026D0042A13D0052A16D0062A17D0082A9E
:101DE00015D01FE085F85C8095F83F20022A19D1B4
:101DF00095F8512082F0010285F8512012E085F813
:101E00005C6085F83D300DE085F85CA00AE0AA6DC5
:101E1000571CAF65032A03D9AB6585F85CC001E0A8
:101E200085F85C60C4F8086595F85C20FEF77CFBDB
:101E300007E77CB504680546D4F840040190D4F85F
:101E4000400420F02E000090019880070DD50198E5
:101E5000C00706D0A06920F00051A1612846FEF716
:101E600061FB009840F002000090019800072CD51B
:101E7000009840F008000090019840071AD5A86922
:101E8000022803D0E86803280CD00FE00198C0F3C3
:101E900041400228286803D0012100F05FFD05E0E1
:101EA0000221FAE74EF66020C4F804042846FEF743
:101EB00039FB0AE0D4F8400420F02E00C4F84004B6
:101EC0002868816941F0005181610198800600987D
:101ED00002D540F020000090C4F840047CBD000012
:101EE0002DE9F041024600680646016AC1F343430A
:101EF00001F00F07C1F30A14022B25D1002C23D0C7
:101F000007EB870102EBC105696C00291CD0224652
:101F100000F043FD686C20446864E86C2044E86489
:101F200006EB4710D0F81015084A11420CD0D0F833
:101F3000001521F0804141F00041C0F8001515F86E
:101F4000500F80F001002870BDE8F0810000F81FFC
:101F5000FEE700002DE9F041C26A0126134604683D
:101F6000921C39B11B491C4D4FF040278C4217D1B0
:101F70002C4616E0E168C2621980418E491E4186F6
:101F8000418E00290AD101684A684FF69F731A40B2
:101F90004A601BE080F84160FEF766FDBDE8F08115
:101FA0003C46E468C2621C80428E521E4286428ECB
:101FB000002AF3D102688A4201D1294600E039465D
:101FC000496821F0600100D03D466960418D0029DB
:101FD000E0D0E3E7003800400034004070B5426ACA
:101FE0000125941C0368446241B11B4912881B4CB3
:101FF0004FF040268B4216D1234615E01188D96058
:10200000418D491E4185418D00290BD101684A68E7
:102010004FF65F731A404A6019E000BF80F84150E4
:10202000FEF722FD70BD3346DA60428D521E4285B6
:10203000428D002AF6D102688A4201D1214600E091
:102040003146496821F0A00100D034466160418EDC
:102050000029E3D070BD000000380040003400408B
:10206000FEB5016804468868019094F84100012596
:10207000042833D101984FF69F76C00716D04868E0
:10208000C043400612D4CA682046E16A8B1CE36252
:102090000A80618E491E6186618E39B901684A687D
:1020A00032404A6080F84150FEF7D2FD0198400668
:1020B00014D520684168C94389060FD4416831406E
:1020C00041602068C1688068009084F84150606C6D
:1020D00040F0020060642046FEF7C7FC94F841001F
:1020E000032834D101984FF65F76800718D5206811
:1020F0004068C043000613D4616A20468A1C6262AD
:1021000022680988D160618D491E6185618D39B968
:1021100001684A6832404A6080F84150FEF799FDF4
:102120000198000713D520684168C94389060ED479
:1021300041683140416020688068009084F84150D7
:10214000606C40F0040060642046FEF78EFCFEBD2B
:102150002DE9F04F534887B00024016841F0100189
:102160000160016801F010010591016841F004016E
:102170000160016801F004010591016841F08001EE
:102180000160016801F080010591016841F00101E1
:102190000160016801F001010591016841F002014F
:1021A0000160016801F002010591016841F0080138
:1021B00001600068DFF8F0B000F00800059001222F
:1021C00008215846FEF7A2F9DFF8E09001221146F7
:1021D0004846FEF79BF9DFF8D8A04FF2100800221E
:1021E00041465046FEF792F901250826CDE90065E3
:1021F000CDE9025469465846FEF7ACF80095CDE9A2
:102200000154694648460394FEF7A4F80096022656
:10221000CDE901640527CDE9034769464846FEF745
:1022200099F80420CDE90004DFF888906946484613
:102230000294FEF78FF8A8020090CDE90164CDE981
:10224000034769464846FEF785F8CDF80080CDE99A
:102250000154694650460394FEF77CF82020CDE9EE
:102260000004694650460294FEF774F8124800953F
:10227000CDE9010469465846FEF76CF80F48009610
:10228000CDE9010469465846FEF764F8002211467C
:102290000620FEF76FFD0620FEF760FD07B0BDE8E3
:1022A000F08F000030380240001002400008024069
:1022B000000C024000040240000011100000121047
:1022C0000E4810B50C4901600D49416000214FF4E2
:1022D00080428160C0E9031241618161C161016294
:1022E000FEF726FA002805D0BDE81040422105A0DF
:1022F00000F07ABB10BD0000005400402000002018
:10230000A08601002E2E2F5372632F6932632E6335
:10231000000000000C490D4810B54A15C0E9001234
:1023200000218160C0E90312094AC0E90521C161A9
:102330000162FEF79BFB002805D0BDE8104042215A
:1023400004A000F051BB10BD003C00407400002010
:10235000007701002E2E2F5372632F6932732E6384
:1023600000000000114810B50F4901604FF4827160
:10237000416000218160C1604FF400720161C0E9D9
:1023800005122822C0E90721416281620A21C16247
:10239000FFF75AF8002805D0BDE81040452104A0F9
:1023A00000F022BB10BD000000300140BC00002046
:1023B0002E2E2F5372632F7370692E63000000005E
:1023C0000C4810B54FF0A041016008218160032145
:1023D0000022C0E903120221C0E90612FEF73DF90E
:1023E000002805D0BDE81040402103A000F0FCBA51
:1023F00010BD0000140100202E2E2F5372632F7584
:1024000073625F6F74672E6300000000FEE7704721
:102410000907090E002806DA00F00F0000F1E0209D
:1024200080F8141D704700F1E02080F80014704718
:102430000148FEF77BB8000014010020704738B552
:102440000B46009204460022802100F008F8002884
:1024500004D0606D40F020006065032038BD2DE998
:10246000F0411D4617460E460446DDF8188035E05B
:10247000681C33D02DB1FEF74FF8A0EB0800A8423E
:102480002CD32068416821F0E00141606068B0F51C
:10249000827F0BD1A068B0F5004F02D0B0F5806FFD
:1024A00004D12068016821F040010160A06AB0F504
:1024B000005F0AD1206801684DF6FF72114001608B
:1024C0002068016841F400510160012084F8510046
:1024D000002084F850000320BDE8F0812068806867
:1024E00036EA000004D00020B842C1D10020F3E752
:1024F0000120F9E7704710B5FEF7ACFBBDE81040CE
:10250000FFF76FBA70B52A4896B00025016841F010
:1025100080510160006800F08050159025480168E6
:1025200041F4804101600068012600F4804015906C
:102530003004CDE9006002248001CDE90640082086
:1025400008904FF4A870CDE9090407200B90684665
:10255000FEF7ECFD00B1FEE70CA90F2081E8310089
:102560004FF4A0500F904FF48050109005210CA80C
:10257000FEF7FEFC00B1FEE7C020CDE91204119683
:1025800011A8FEF757FC00B1FEE7FEF789FD4FF4F6
:102590007A71B0FBF1F0FFF710FA0420FFF700FAB0
:1025A00000221146501EFEF7E5FB16B070BD00007C
:1025B00040380240007000401048016841F470014A
:1025C00001600F48016841F0010101600C4A0021DF
:1025D0000832116002680B4B1A400260031D0A4A60
:1025E0001A60026822F48022026005480C30016003
:1025F00002495806803908607047000088ED00E005
:1026000000380240FFFFF6FE1030002470B504468B
:10261000049D06990D9801290CD0E06840F0400017
:10262000E060204600F028F84FF48030A063012DD0
:1026300016D01DE0A16B21F48031A163E1680D4A41
:102640001140E160E16821F44011E160012803D10B
:10265000E06840F48010E060204600F00DF8E6E706
:10266000A06840F00600A060A06840F02000A060D4
:10267000002070BDBFFFBDFF01220C4902E0521CCB
:102680008A420BD80369002BF9DA026942F0010291
:102690000261012204E0521C8A4201D903207047E2
:1026A0000369DB07F7D1002070470000400D0300ED
:1026B000816821F0010181600020704708B5D0F8E1
:1026C000402422F02E020092D20405D4012909D11F
:1026D000009941F4805103E021B9009921F480511F
:1026E000C0F84014002008BD002110220261054AF4
:1026F000491C914201D9032070470369DB06F7D4D6
:1027000000207047400D03000022202343EA81117E
:1027100001610549521C8A4201D9032070470369AF
:102720009B06F7D400207047400D0300406900F07D
:102730000100704710B50246002302F5A06000EBCF
:1027400041100068C0F3814040B102F5A06000EB89
:1027500041100068C0F38140022846D102F5A06014
:1027600000EB4110006840F0804402F5A06000EBEF
:1027700041100460D06A00F47F0048BB02F5A060FD
:1027800000EB4110006820F0004402F5A06000EB6F
:102790004110046002F5A06000EB4110006840F0B9
:1027A000004402F5A06000EB4110046000BF581C1B
:1027B0000346B0F57A7F00D909E002F5A06000EB8E
:1027C0004110006800F00040B0F1004FEFD053E03E
:1027D00002F5A06000EB4110006840F0004402F5F3
:1027E000A06000EB4110046046E002F5A06000EB41
:1027F0004110006840F0804402F5A06000EB4110F9
:1028000004604FF48260805880B248BB02F5A0603B
:1028100000EB4110006820F0004402F5A06000EBDE
:102820004110046002F5A06000EB4110006840F028
:10283000004402F5A06000EB4110046000BF581C8A
:102840000346B0F57A7F00D909E002F5A06000EBFD
:102850004110006800F00040B0F1004FEFD00BE0F5
:1028600002F5A06000EB4110006840F0004402F562
:10287000A06000EB41100460002010BD014640F252
:102880001440405880B270472DE9F047174604467F
:102890000025DDF82090C0F8005E806B20F48020D9
:1028A000A063A06B20F40020A063A06B40F4001094
:1028B000A0634FF0A048032B06D1444504D0D4F8C0
:1028C000000440F0040003E0D4F8000420F0040009
:1028D000C4F8000410212046FFF716FF2046FFF73A
:1028E00003FF0020461E06E004EB4011C1F8086516
:1028F000C1F80C55401C8742F6D801212046FFF74D
:10290000DDFEC820FDF7D6FCA5616661444505D112
:10291000802060620C48A0620C4805E04FF4007013
:1029200060620B48A0620B48C4F80001B9F1000FC7
:1029300003D1A06940F01000A061A06906490843D6
:10294000A0610020BDE8F08780006000E00040004A
:10295000000200010003E000080020A3D0F80024DA
:1029600022F00302C0F80024D0F8002401F0030391
:102970001A43C0F80024012902D0022903D006E03E
:102980004BF6803101E041F27071C0F80414002070
:102990007047416980690840704710B503460020C0
:1029A000D21C920803F5805303E01C6841F8044BE5
:1029B000401C9042F9D3084610BD10B5C26822F001
:1029C000C042C260012901D021B107E0C16841F0D5
:1029D000005102E0C16841F08041C1603220FDF742
:1029E00069FC002010BDFEE7FEE702E008C8121FE8
:1029F00008C1002AFAD170477047002001E001C1E8
:102A0000121F002AFBD17047FEF72CF9FFF77AFD61
:102A1000FFF79EFBFFF754FCFFF77CFCFFF7A2FCDF
:102A2000FFF7CEFC234D002208212846FDF76EFD5E
:102A3000214C202032232070372060700222214652
:102A40001E48FEF70DFE012208212846FDF75EFD17
:102A5000002208212846FDF759FDA02020703223CE
:102A6000012221461548FEF7FBFD3223012204F125
:102A700008011248FEF74CFD012208212846FDF707
:102A800045FD002208212846FDF740FD2320207047
:102A9000C82060703223022221460848FEF7E0FD7C
:102AA000012208212846FDF731FD0A20FDF702FC2E
:102AB000FBE700000010024000000020BC000020E6
:102AC00000000000000000000102030406070809DE
:102AD0000000000001020304F82A000800000020A2
:102AE00020000000EA290008182B00082000002020
:102AF00090070000FA290008000000000000000014
:102B000000000000000000000100000010000000B4
:082B1000000000000024F400A5
:040000050800018965
:00000001FF
